:020000040000FA
:060000007FEF18F0120072
:0600080004EF08F01200F5
:060018000CEF08F01200DD
:061000007FEF18F0120062
:021006001200D6
:061008005AEF11F0120086
:02100E000000E0
:06101800A5EF11F012002B
:02101E000100CF
:0C1020000E100000FE00000002000000A6
:04102C00D9CFE6FF33
:10103000E1CFD9FFE652A0940F015F6B626A536B58
:10104000020EE66EE66AE66A540EE66E0F0EE66E75
:10105000FFEC17F00B6E050EE15E0B50160E616E85
:101060000F019F0E5B6F7B0E606EDF6ADF500B6EB1
:101070000C6A0C0E0B5C000E0C5810E2DF50040DD5
:10108000F3CFE9FFF4CFEAFF000EE926020EEA22D1
:10109000EE6AEE6AEE6AEE6ADF2AE8D7648C0F0128
:1010A0005C6B6498649C62A607D062960101576BE2
:1010B0005C6B5D6B5E6BF7D70101010E706F716F3A
:1010C000726B736B646BDF6A030EDF5C26E2EA6AA5
:1010D000DF34FE0BEA36E96E4D0EE926010EEA22F8
:1010E000EE6AED6AEA6ADF34FE0BEA36E96E470E15
:1010F000E926010EEA22EE6AED6ADF50EA6A680F1D
:10110000E96E010EEA22EF6ADF50EA6A6B0FE96EC0
:10111000010EEA22EF6ADF2AD7D70101080E4D6FD0
:10112000020E4E6F0F01160E536F0201300E026F4A
:10113000020E036F080E016F840E006F0101416BF8
:10114000406BE552E552E7CFD9FF1200D9CFE6FF59
:10115000E1CFD9FFE6520101400507E164BA05D0AD
:10116000626A60806088020E406F6250040B05E086
:101170006050040B02E06294C8D864B258D0625048
:10118000010B09E06050010B06E050DFA084010173
:10119000040E406F62906250100B05E06050100B1F
:1011A00002E09ED8629862AC19D060AC0FD0010EFC
:1011B000E66EE66A000EE66EE66A730EE66EE66AB4
:1011C00006EC14F00B6E060EE15E0B50629C010102
:1011D0006E5101E06E076E5101E15BDB6250200B46
:1011E00004E06050200B01E061D86250020B14E073
:1011F0006050020B11E0010EE66EE66A000EE66E2C
:10120000E66AE6687F0EE66E06EC14F00B6E060EDC
:10121000E15E0B500F015F6B040E0101E76E401998
:10122000E8AE02D0E73402D0E750405D02E2A1947C
:1012300038D060A635D0DF6A040EDF5C31E262A6EA
:101240002FD063CF65F101016551780BE842E84288
:10125000E842666F629665B506D06651EA6A6B0F22
:10126000E96E010E05D06651EA6A680FE96E010E5B
:10127000EA22EF70665102E15FD810D0000EE66EF0
:10128000E66A650EE66E010EE66E720EE66EE66AC0
:1012900006EC14F00B6E060EE15E0B50DF2ACCD785
:1012A000A194E552E552E7CFD9FF12000F0153A1F7
:1012B00015D043C1E9FF44C1EAFFEF5080080DE1BA
:1012C0004DC1E9FF4EC1EAFFEF50840806E143C17A
:1012D000E9FF44C1EAFF8C0EEF6E5391629A12004F
:1012E0006084629864820101010E646F000EE66EF4
:1012F000E66AE66EE66A750EE66EE66A06EC14F0DD
:101300000B6E060EE15E0B5012000101646B000EC5
:10131000E66EE66AE66EE66A740EE66EE66A06EC6D
:1013200014F00B6E060EE15E0B506492609462A4A2
:1013300002D06294FCD71200D9CFE6FFE1CFD9FFEB
:10134000E65201012D0E6E6FFD0E651553E17E0E06
:101350006515E8407F0B040DF3CF43F1F4CF44F162
:10136000000E4327020E442343C145F144C146F118
:10137000457543C1E9FF44C1EAFFEF503C0BE84229
:10138000E8420D0835E1DF6A080EDF5C23E243C165
:10139000E9FF44C1EAFF020EE926000EEA22EE5000
:1013A000EFCFEAFFE96EEF50E66EDF50EA6A300FEA
:1013B000E96E020EEA22E552E750EF6E43C1E9FF03
:1013C00044C1EAFF020EE926000EEA22EE2AEF22CD
:1013D000DF2ADAD743C1E9FF44C1EAFF020EE9265A
:1013E000000EEA22300EEE6E020EED6E0DD807D022
:1013F0003AD805D0FD0E6515040801E159D8E5522B
:10140000E552E7CFD9FF12000101536B6F6B726B8E
:10141000736B676B546B4DC1E9FF4EC1EAFFEF9EE2
:101420004D754DC1E9FF4EC1EAFFEF9E4D7545C1B7
:10143000E9FF46C1EAFFEF9E576B586B596B5C6B37
:101440005D6B5E6B8FD8000EE66EE66AE66EE66A4E
:10145000030EE66EE66A06EC14F00B6E060EE15E15
:101460000B5096EF0DF0020E0101545D02E156EFB4
:101470000EF0546B67511AE145C1E9FF46C1EAFF1E
:10148000EE52080EEF6E45C1E9FF46C1EAFF020EBB
:10149000E926000EEA22300EEE6E020EED6E45C118
:1014A000E9FF46C1EAFF8C0EEF6E1200676B120077
:1014B000D9CFE6FFE1CFD9FFE6524DC1E9FF4EC1DA
:1014C000EAFFEF50400B01E0010EDF6E01014D75A8
:1014D000080E405D0BE132C25CFF0F015C5103E07E
:1014E0000101100E02D00101040E406F540526E1E7
:1014F0004DC1E9FF4EC1EAFF020EE926000EEA22C5
:10150000380EEE6E020EED6E72DB020E0101535DBF
:1015100006E14DC1E9FF4EC1EAFF840E0DD0DF5058
:1015200006E14DC1E9FF4EC1EAFFC80E05D04DC12D
:10153000E9FF4EC1EAFF880EEF6E0FD05CAF0CD012
:101540005F51601107E005D060C1FAFF01015F51F2
:10155000F96EFADF01015C9F546BE552E552E7CF6B
:10156000D9FF120002013051600BE842E842E84224
:10157000E842E842000901E0120031510C0A50E053
:101580000B0A3FE00C0A31E0010A22E00B0A1EE0E0
:10159000020A1CE0030A18E0080A10E0010A0CE045
:1015A0000F0A08E0030A01E012000101578F080E3C
:1015B000406F1200D8EF0CF0F5EF0EF00101410E74
:1015C000556F010E566F0CD035EF0DF011EF0BF08B
:1015D00034510101556F566B420E5527010E5623AB
:1015E0005781010E586F578F12000101578F02016A
:1015F0003451EA6A420FE96E010EEA2232C2EFFF6D
:101600001200000EE66EE66AE66EE66A020EE66E0E
:10161000E66A06EC14F00B6E060EE15E0B5012004B
:101620001200D9CFE6FFE1CFD9FF050EE126020176
:10163000320510E130511F0B00090CE10101578FF9
:10164000030E0201315D04E10101010E636F02D05E
:101650000101636B0201325101E011D130511F0BC6
:10166000020801E00CD134510F0B000901E107D150
:1016700034510F0B020801E202D1200E0101405D3E
:1016800001E0FDD0578F020134BF16D034510F0B4B
:10169000E96EEA6AD890E936EA36470EE926010E85
:1016A000EA22EECFDEFFEDCFDDFF34510F0BEA6A09
:1016B0006B0FE96E010E15D034510F0BE96EEA6A1B
:1016C000D890E936EA364D0EE926010EEA22EECF31
:1016D000DEFFEDCFDDFF34510F0BEA6A680FE96ED4
:1016E000010EEA22020EEFCFDBFFD950020FE96EA6
:1016F000DACFEAFFEF50010B03E1000EDF9401D0D7
:10170000DF8434BF0BD034510F0BE96EEA6AD890F6
:10171000E936EA36470EE926010E0AD034510F0B9E
:10172000E96EEA6AD890E936EA364D0EE926010EEE
:10173000EA22DECFEEFFDDCFEDFF030E315D20E1CB
:10174000DECFE9FFDDCFEAFFEF50800B11E034BFC1
:1017500007D034510F0BEA6A6B0FE96E010E06D009
:1017600034510F0BEA6A680FE96E010EEA22EF822C
:10177000840EDECFE9FFDDCFEAFFE850EF127FD025
:10178000DF74DECFE9FFDDCFEAFFEF50800B1BE017
:10179000DECFE9FFDDCFEAFFEF9EDECFE9FFDDCF51
:1017A000EAFFEF8C020EE66EE66ADECFE6FFDDCFE3
:1017B000E6FF050EE66EE66A06EC14F00B6E060E0A
:1017C000E15E0B5005D0DECFE9FFDDCFEAFFEF8C05
:1017D000DF74D950020FE96EDACFEAFFEF50020B47
:1017E00007E1DECFE9FFDDCFEAFFEF50800B2BE012
:1017F000020134BF07D034510F0BEA6A6B0FE96E58
:10180000010E06D034510F0BEA6A680FE96E010E23
:10181000EA22EF923B0E0B6EDECFE9FFDDCFEAFF4F
:10182000E850EF16020EE66EE66ADECFE6FFDDCF89
:10183000E6FF050EE66EE66A06EC14F00B6E060E89
:10184000E15E0B5007D03B0EDECFE9FFDDCFEAFFB4
:10185000E850EF16020134510F0B0C6A530F0B6E58
:101860000F0E0C22030E0BC0DBFF040E0CC0DBFFBF
:10187000030EDBCFE9FF040EDBCFEAFFEF90050E8E
:10188000E15C02E2E16AE552E16EE552E7CFD9FFA1
:101890001200010170514DE1010E706F715149E16B
:1018A000010E716F020E545D0DE14DC1E9FF4EC195
:1018B000EAFFEE52EF6A4DC1E9FF4EC1EAFFC80EE2
:1018C000EF6E1200540535E1676B43C1E9FF44C177
:1018D000EAFFEE52080EEF6E43C1E9FF44C1EAFF92
:1018E000020EE926000EEA22300EEE6E020EED6EBA
:1018F00043C1E9FF44C1EAFF840EEF6E010E676F3A
:1019000045C1E9FF46C1EAFFEE52080EEF6E45C140
:10191000E9FF46C1EAFF020EE926000EEA22300E78
:10192000EE6E020EED6E45C1E9FF46C1EAFF800E84
:10193000EF6E12000101726B736B020E545D18E1C1
:1019400045C1E9FF46C1EAFFEE52080EEF6E45C100
:10195000E9FF46C1EAFF020EE926000EEA22380E30
:10196000EE6E020EED6E45C1E9FF46C1EAFF1DD0E5
:1019700058510201365D010159510201375904E203
:1019800036C258F137C259F132D94DC1E9FF4EC1C3
:10199000EAFF020EE926000EEA22380EEE6E020E73
:1019A000ED6E4DC1E9FF4EC1EAFFC80EEF6E1200A9
:1019B000800E0201305D58E10101C00E576F020137
:1019C0003351030A2FE0010A09E0030A4BE1010148
:1019D000960E556F2E0E566F120E3ED03251F66E89
:1019E000F76AD890F636F736570EF6262F0EF722FE
:1019F0000900F5CF55F10A00F5CF56F1020E0101AD
:101A0000F76A5525F66E5651F7220800F5CF58F1C2
:101A1000030EF76A5525F66E5651F7220800F5CFEA
:101A200059F11200030E325D1AE23251F66EF76A76
:101A3000D890F636F736590EF6262F0EF722090003
:101A4000F5CF55F10A00F5CF56F155C1F6FF56C155
:101A5000F7FF0800F5500101586F596B12000101A2
:101A6000576B12000101576B1200D9CFE6FFE1CF8F
:101A7000D9FF020EE1260201386B396B30511F0B82
:101A8000020A11E0030A0CE0010A3CE10101578F50
:101A9000020138810101630535E10201388332D04A
:101AA0000101578F2FD00101578F020134BF0BD096
:101AB00034510F0BE96EEA6AD890E936EA36470EE0
:101AC000E926010E0AD034510F0BE96EEA6AD8906C
:101AD000E936EA364D0EE926010EEA22EECFDEFFA8
:101AE000EDCFDDFFDECFE9FFDDCFEAFFEF50800B6A
:101AF00009E0DECFE9FFDDCFEAFFEF50040B02E0A3
:101B0000010E386F010157AF07D0380E556F020E26
:101B1000566F5781020E586F020EE15C02E2E16AD5
:101B2000E552E16EE552E7CFD9FF1200649801015A
:101B300057BF2BD05CAF09D0020E546F735101E137
:101B4000F9DE0101716B706B120045C1E9FF46C1FE
:101B5000EAFFEE52080EEF6E45C1E9FF46C1EAFF0B
:101B6000020EE926000EEA22300EEE6E020EED6E37
:101B700045C1E9FF46C1EAFF8C0EEF6E4DC1E9FF9A
:101B80004EC1EAFF840EEF6E1200020130AF0DD09D
:101B90000101010E546F725101E1CCDE0101716B44
:101BA000706B6F5123E149EF0CF00101020E546F8D
:101BB00045C1E9FF46C1EAFFEE52080EEF6E45C18E
:101BC000E9FF46C1EAFF020EE926000EEA22300EC6
:101BD000EE6E020EED6E45C1E9FF46C1EAFF840ECE
:101BE000EF6E716B706B6F5101E153DE1200D9CF54
:101BF000E6FFE1CFD9FFE652080EDF6E0101585D26
:101C0000000E59590AE258C1DFFF535102E1010E9B
:101C100003D0530502E1020E536FDF500C6AE85007
:101C2000585D586F0C505959596F4DC1E9FF4EC15D
:101C3000EAFFEE52DFCFEFFF380E616F020E626FE8
:101C400057B118D0DF502DE055C1F6FF56C1F7FF50
:101C5000552B000E56230800F550E66E61C1E9FFD2
:101C600062C1EAFF612B000E6223E552E750EF6E7E
:101C7000DF06E8D7DF5015E055C1E9FF56C1EAFF9E
:101C8000552B000E5623EF50E66E61C1E9FF62C18D
:101C9000EAFF612B000E6223E552E750EF6EDF068C
:101CA000E9D7E552E552E7CFD9FF1200D9CFE6FFD9
:101CB000E1CFD9FF020EE12643C1E9FF44C1EAFFAB
:101CC000EE52EFCFDFFFDFCF0BF00B5001015D5D78
:101CD000000E5E5902E25DC1DFFFDF500B6E0C6A41
:101CE000E8505D5D5D6F0C505E595E6F010EDB6A02
:101CF000DF50F36E010EDBCFF4FFF350F45C16E21D
:101D0000010EDB50EA6A380FE96E020EEA22EF504C
:101D1000E66E5AC1E9FF5BC1EAFF5A2B000E5B2356
:101D2000E552E750EF6E010EDB2AE2D7000ED880B5
:101D30005D55000E5E5527E245C1E9FF46C1EAFF49
:101D4000EE52080EEF6E45C1E9FF46C1EAFF020EF2
:101D5000E926000EEA22380EEE6E020EED6E43C149
:101D6000E9FF44C1EAFFEF50400B06E145C1E9FF3E
:101D700046C1EAFFC80E05D045C1E9FF46C1EAFFEA
:101D8000880EEF6E28D045C1E9FF46C1EAFFEE524A
:101D9000080EEF6E45C1E9FF46C1EAFF020EE926D3
:101DA000000EEA22300EEE6E020EED6E45C1E9FF26
:101DB00046C1EAFF840EEF6E5F51601107E005D067
:101DC00060C1FAFF01015F51F96EFADF01015C9F0A
:101DD0006F5101E15EDD020EE15C02E2E16AE55273
:101DE000E16EE552E7CFD9FF1200D9CFE6FFE1CF90
:101DF000D9FFE6520101578F020EE66EE66AE66AE7
:101E0000540EE66E0F0EE66EFFEC17F00B6E050E2D
:101E1000E15E0B50DF6ADF500B6E0C6A0C0E0B5C40
:101E2000000E0C5810E2DF50040DF3CFE9FFF4CFA1
:101E3000EAFF000EE926020EEA22EE6AEE6AEE6A78
:101E4000EE6ADF2AE8D7648CDF6A030EDF5C10E2FB
:101E5000DF50EA6A680FE96E010EEA22EF6ADF508E
:101E6000EA6A6B0FE96E010EEA22EF6ADF2AEDD70C
:101E7000010EE66EE66AE66A420EE66E010EE66E58
:101E8000FFEC17F00B6E050EE15E0B50649C010138
:101E9000080E4D6F020E4E6F000E436F020E446F20
:101EA00043C145F1466F32C241F1415102E1100E8A
:101EB00012D0010EE66EE66A410EE66E010EE66E87
:101EC000010EE66EE66A06EC14F00B6E060EE15E9D
:101ED0000B500101200E406FE552E552E7CFD9FFCC
:101EE0001200D9CFE6FFE1CFD9FF020EE126000EA6
:101EF000DE6E020EDD6EFD0EDB50E8240D6EFE0E72
:101F0000DB50040DF3500D24040DF4CF0CF0D9CFA9
:101F1000E9FFDACFEAFFF350EE260C50ED22DECFD8
:101F2000E9FFDDCFEAFFEF9EFD0EDB500AE1FE0E7A
:101F3000EA6ADB34FE0BEA36E96E470EE926010E4B
:101F400009D0FE0EEA6ADB34FE0BEA36E96E4D0E6E
:101F5000E926010EEA22DECFEEFFDDCFEDFFDECF78
:101F6000E9FFDDCFEAFFEF9CDECFE9FFDDCFEAFF3F
:101F7000040EE926000EEA22EF8C020EE15C02E27A
:101F8000E16AE552E16EE552E7CFD9FF1200D9CF01
:101F9000E6FFE1CFD9FF020EE126FD0EDBA407D05C
:101FA000E66AFE0EDBCFE6FF9CDFE552E552FD0E52
:101FB000DBA208D0010EE66EFE0EDBCFE6FF91DF5E
:101FC000E552E552FE0EDB500C6A530F0B6E0F0EFE
:101FD0000C220BC0DEFF0CC0DDFFDECFE9FFDDCF42
:101FE000EAFFFD0EDBCFEFFF020EE15C02E2E16AE9
:101FF000E552E16EE552E7CFD9FF1200D9CFE6FFF7
:10200000E1CFD9FF020EE126FE0EDB5020E145C1F3
:10201000E9FF46C1EAFFEE52080EEF6E45C1E9FF47
:1020200046C1EAFF020EE926000EEA22300EEE6EED
:10203000020EED6E45C1E9FF46C1EAFF8C0EEF6E60
:102040004DC1E9FF4EC1EAFF840EEF6E3BD0FD0E9D
:10205000DB50E8240D6EFE0EDB50040DF3500D2412
:10206000040DF3CF0BF0F4CF0CF0000E0B26020E94
:102070000C220BC0DEFF0CC0DDFF840EDECFE9FFBB
:10208000DDCFEAFFE850EF12FD0EDB50E8240D6EC5
:10209000FE0EDB50040DF3500D24010F040DF3CFA1
:1020A0000BF0F4CF0CF0000E0B26020E0C220BC02E
:1020B000DEFF0CC0DDFF840EDECFE9FFDDCFEAFFDF
:1020C000E850EF12020EE15C02E2E16AE552E16ED5
:1020D000E552E7CFD9FF1200D9CFE6FFE1CFD9FF14
:1020E000020EE126FD0EDB500AE0FE0EEA6ADB344A
:1020F000FE0BEA36E96E4D0EE926010E09D0FE0E02
:10210000EA6ADB34FE0BEA36E96E470EE926010E79
:10211000EA22EECFDEFFEDCFDDFFD9CFE9FFDACF48
:10212000EAFFEE50ED1003E1F36AF46A44D0DECF2B
:10213000E9FFDDCFEAFF020EE926000EEA22FB0EE0
:10214000DBCFEEFFFC0EDBCFEDFFDECFE9FFDDCF17
:10215000EAFFEE52FA0EDBCFEFFF400EDECFE9FFD3
:10216000DDCFEAFFE850EF16880EDECFE9FFDDCFC6
:10217000EAFFE850EF12FD0EDB500AE0FE0EEA6ABD
:10218000DB34FE0BEA36E96E4D0EE926010E09D06E
:10219000FE0EEA6ADB34FE0BEA36E96E470EE926EC
:1021A000010EEA22EF74DECF0BF0DDCF0CF00BC096
:1021B000F3FF0CC0F4FF020EE15C02E2E16AE552BB
:1021C000E16EE552E7CFD9FF1200D9CFE6FFE1CFAC
:1021D000D9FF64A84ED0FE0EEA6ADB34FE0BEA3665
:1021E000E96E4D0EE926010EEA22EE50EFCFEAFF2E
:1021F000E96E400EEE16EE6AEE6AEE6AFE0EEA6ACE
:10220000DB34FE0BEA36E96E4D0EE926010EEA22BA
:10221000EE50EFCFEAFFE96EEE7CFE0EEA6ADB34A9
:10222000FE0BEA36E96E4D0EE926010EEA22EF7446
:10223000400E0B6EFE0EEA6ADB34FE0BEA36E96EE8
:102240004D0EE926010EEA22EE50EFCFEAFFE96ECD
:102250000B50EF16FE0EEA6ADB34FE0BEA36E96E2F
:102260004D0EE926010EEA22EE50EFCFEAFFE96EAD
:10227000EF7CE552E7CFD9FF1200646A606A010182
:10228000406B12000101405114E1646A606A160E4D
:10229000616E0F019F0E5B6F7B0E606ED08EA2840D
:1022A000A084F28E64B602D06486FCD70101010ED0
:0422B000406F120069
:0C22B400DACFE4FFE2CFDAFFE9CFE4FF6D
:1022C000EACFE4FFF6CFE4FFF7CFE4FFF5CFE4FF7A
:1022D000F3CFE4FFF4CFE4FFFACFE4FF00EE00F029
:1022E0000B0EE80403E3EECFE4FFFBD700EE0BF0A8
:1022F000040EE80403E3EECFE4FFFBD7E652A6ECBE
:1023000008F0E55200EE0EF0040EE80403E3E5CF1A
:10231000EDFFFBD700EE0AF00B0EE80403E3E5CF78
:10232000EDFFFBD7E5CFFAFFE5CFF4FFE5CFF3FFF5
:10233000E5CFF5FFE5CFF7FFE5CFF6FFE5CFEAFF05
:10234000E5CFE9FFE5CFDAFF1100D8CFE4FFE0CF1A
:10235000E4FFE46EDACFE4FFE652E552E5CFDAFFC0
:10236000E550E5CFE0FFE5CFD8FF100016D801011A
:10237000405102E142EC11F068D8F9D7F90ECB6E6A
:10238000B990B992B994B996CA82CA840C0EBD6E3E
:10239000F90EBE6EB986CC6A12000F0EC11245D876
:1023A00016EC08F0ECEC16F0E9DFB50E0B6E300E13
:1023B0000C6E0D6A0BC0E6FFE66E0DC0E6FFA00EC8
:1023C000E66E000EE66E19EC18F00E6E050EE15E7C
:1023D0000E50A00EE66E000EE66EC9EC16F0E55249
:1023E000E552C00EE66EE66A29EC17F0E552E552BA
:1023F000A70E0B6E300E0C6E0D6A0BC0E6FFE66E7C
:102400000DC0E6FFA00EE66E000EE66E19EC18F0A9
:102410000E6E050EE15E0E50A00EE66E000EE66E2C
:10242000C9EC16F0E552E5521200D9CFE6FFE652AC
:102430000001E26BE16B010EE06FF00E8B1694165B
:10244000E552E552E7CFD9FF1200D9CFE6FFE1CF41
:10245000D9FF030EE12657D90001E15111E0E05107
:1024600010E10001E6510DE1920EE66E300EE66ECF
:10247000D2EC15F0E552E5520001010EE06F01D0FB
:10248000E06B0001E65101E032D1400EE66EA00E95
:10249000E66E000EE66E17EC15F0E552E552E552D9
:1024A000DF6EDF5001E123D1020EDFCFDBFFFE0E36
:1024B0000001A05D01E0EFD0020EDB06DB5017E16A
:1024C0000001E651FDE1400EE66EA10EE66E000E43
:1024D000E66E17EC15F0E552E552E552DF6E020E9E
:1024E000DB50DF24E76E020EE7CFDBFFE7D7020EFB
:1024F000DB060001A151980A01E1A4D0CA0A01E15A
:1025000099D0030A01E194D0090A01E18FD0160A9B
:102510003BE0030A37E0010A33E0180A2FE0070A1C
:102520002BE0180A2BE0010A25E0020A21E00F0A3D
:1025300001E0DDD0A205E76E010EE7CFDBFFA3517E
:10254000040A08E0070A04E0010A0EE1400E03D085
:10255000140E01D0540E0B6E010EDBCFE7FF0B50B3
:10256000E726010EE7CFDBFF010EDB50800F63D0C3
:10257000020E61D00E0E5FD00D0E5DD00C0E5BD042
:10258000100E59D0140E57D0090EF36E020EDBCF89
:10259000F4FFF350F45C1FE20001E651FDE1400E50
:1025A000E66E020EDB50020F0C6AA00F0B6E000EDF
:1025B0000C220BC0E6FF0CC0E6FF17EC15F0E5524D
:1025C000E552E552DF6E020EDB50DF24E76E020EAD
:1025D000E7CFDBFFD9D70001A251080D010EF3CFE1
:1025E000DBFFDB504009E66EE66A29EC17F0E552A6
:1025F000E552010EDB6A080EF36E010EDBCFF4FF2D
:10260000F350F45C74E2010EDB50030FEA6AA00F92
:10261000E96E000EEA22EF50E66E010EE66E29EC3E
:1026200017F0E552E552010EDB2AE5D7010E03D083
:10263000070E01D0060EE66EE66A29EC17F0E552A9
:10264000E55255D0020EF36EDBCFF4FFE850F45C98
:102650001FE20001E651FDE1400EE66E020EDB5086
:10266000020F0C6AA00F0B6E000E0C220BC0E6FFCF
:102670000CC0E6FF17EC15F0E552E552E552DF6EAF
:10268000020EDB50DF24E76E020EE7CFDBFFDAD766
:10269000A2C0BEFF2CD0010EDB6ADF50F36E010E2C
:1026A000DBCFF4FFF350F45C22E2010EDB50EA6A68
:1026B000A00FE96E000EEA22EF500A0A02E0070AB4
:1026C00004E1010EE66EE66A0BD0010EDB50EA6A09
:1026D000A00FE96E000EEA22EF50E66E010EE66EE4
:1026E00029EC17F0E552E552010EDB2AD6D715EC9E
:1026F00016F0030EE15C02E2E16AE552E16EE5529A
:10270000E7CFD9FF12000001FE51FF1104E1100EC6
:10271000FE6F270EFF6FFE07000EFF5B64A207D05F
:10272000FE51FF112EE18B708BB013D027D0010129
:10273000405102E18B9022D0400502E18B8009D00C
:10274000020E405D02E18B8019D0040E405D03E172
:102750008B908B821200100E405D06E10001FE514D
:10276000FF110FE18B700AD0200E405D0AE10001DD
:10277000FE51FF1106E18B708BA002D08B921200EC
:102780008B821200120012008050080B01E0010E33
:102790000001E15D0DE1E25102E0E207120080502C
:1027A000080B080A01E0010EE16F640EE26F1200EF
:1027B000E25101E0E2071200120050EF14F01200A3
:1027C0009EEF14F00101630520E1010164051DE1A4
:1027D000A094D9DF64920101646B0001100EE36FD5
:1027E0000E0EE46FE307000EE45BE351E411FAE13F
:1027F0006484080EE36F070EE46FE307000EE45BEA
:10280000E351E411FAE16494A0841200D9CFE6FF09
:10281000E1CFD9FFFD0EDBCF06F0FE0EDBCF07F0D8
:10282000050E061801E1075036E0E868061802E1D7
:102830007F0E07182FE0030E061801E1075028E06D
:10284000020E061801E1075021E0010E061801E111
:1028500007501AE0740E061801E1075013E0750ED8
:10286000061801E107500CE0730E061801E107504D
:1028700005E0720E06180FE107500DD085DF0BD072
:1028800081DF09D080DF07D09BDF05D098DF03D040
:1028900094DF01D091DF010EE552E7CFD9FF12009E
:1028A000020130511F0B010801E012003051600B92
:1028B000E842E842E842E842E842010801E012004A
:1028C000345103E0340501E012003151220A31E0B5
:1028D000030A24E0010A15E0210A0DE0010A01E0E3
:1028E00012000101F60E556F000E566F080E586F5C
:1028F000596B578121D00101F60E556F000E566FAE
:102900001BD036C25DF137C25EF10101680E5A6F0D
:10291000020E5B6F5F6B606B5C8F12000101680ED3
:10292000556F020E566F070E586F596BC10E576FD9
:10293000120032C2F1F00101578F12000201686BE0
:102940004B0E696F6A6B6B6B6C6B6D6B080E6E6F09
:102950000001E56B1A0EE66E010EE66EC7EC0FF095
:10296000E552E5521E0EE66E020EE66EC7EC0FF063
:10297000E552E552100EE66E480EE66E020EE66E69
:10298000E66A020EE66E6CEC10F00B6E050EE15E70
:102990000B50F3CFEDF0F4CFEEF00001EF6BF06BE6
:1029A000E66B1200D9CFE6FFE1CFD9FFFD0EDBCFFA
:1029B00006F0FE0EDBCF07F0050E061801E107500A
:1029C00002E0000E30D0FB0EDBCF0BF0FC0EDBCFB5
:1029D0000CF00001ED510B1816E1EE510C1813E14B
:1029E000100EE66E480EE66E020EE66EE66A020E07
:1029F000E66E6CEC10F00B6E050EE15E0B50F3CF43
:102A0000EDF0F4CFEEF0FB0EDBCF0BF0FC0EDBCFE6
:102A10000CF00001EF510B1805E1F0510C1802E128
:102A2000E66BEB6B010EE552E7CFD9FF1200D9CF71
:102A3000E6FFE1CFD9FF0001E56BED51EE1102E1B8
:102A4000000E08D0EDC0E9FFEEC0EAFFEF50800BAA
:102A500001E0010E000945E1FC0EDBCF0BF0EDC0FB
:102A6000E9FFEEC0EAFFEE52EF50D8800B5408E2C7
:102A7000EDC0E9FFEEC0EAFFEE52FC0EEFCFDBFF48
:102A8000E56BFC0EDB50E55D19E2E551EA6A480FA3
:102A9000E96E020EEA22EF50E66EE551E76EFD0E9A
:102AA000DBCFE9FFFE0EDBCFEAFFE750E926000EA1
:102AB000EA22E552E750EF6EE52BE3D7100EE66E03
:102AC000480EE66E020EE66EE66A020EE66E6CECEC
:102AD00010F00B6E050EE15E0B50F3CFEDF0F4CF6E
:102AE000EEF00001E551E552E7CFD9FF1200D9CF52
:102AF000E6FFE1CFD9FFA0940001E6510CE1FD0E05
:102B0000DBCFE7F0FE0EDBCFE8F0FC0EDBCFEBF027
:102B1000010EEC6FE66FA084E552E7CFD9FF1200FB
:102B2000D9CFE6FFE1CFD9FF030EE126A094000143
:102B3000E6512DE1DF6AFD0EDBCF06F0FE0EDBCFA6
:102B400007F0DE5206C0DEFF07C0DDFFDD52DF2AE0
:102B5000DF500B6E0C6AFF0E0B1802E10C500BE0FD
:102B6000010EDBCFE9FFDB2A020EDBCFEAFF01E338
:102B7000DB2AEF50ECE1FD0EDBCFE7F0FE0EDBCF02
:102B8000E8F0DFCFEBF00001010EEC6FE66FA08400
:102B9000030EE15C02E2E16AE552E16EE552E7CF45
:102BA000D9FF1200D9CFE6FFE1CFD9FF030EE1260E
:102BB000A0940001E6512EE1DF6AFD0EDBCF06F0A6
:102BC000FE0EDBCF07F0DE5206C0DEFF07C0DDFFE2
:102BD000DD52DF2ADF500B6E0C6AFF0E0B1802E18C
:102BE0000C500CE0010EDBCFF6FFDB2A020EDBCF30
:102BF000F7FF01E3DB2A0800F550EBE1FD0EDBCF28
:102C0000E7F0FE0EDBCFE8F0DFCFEBF00001EC6B7E
:102C1000010EE66FA084030EE15C02E2E16AE55278
:102C2000E16EE552E7CFD9FF1200D9CFE6FFE1CF41
:102C3000D9FF020EE126A0940001EF51F01102E14C
:102C4000000E08D0EFC0E9FFF0C0EAFFEF50800BA4
:102C500001E0010E000906E1030EE65D01E1E66B0D
:102C6000E65102E1A0847ED0020EE65D16E1E66A3E
:102C7000000EE66EE66A010EE66E020EE66E6CEC83
:102C800010F00B6E050EE15E0B50F3CFEFF0F4CFBA
:102C9000F0F00001030EE66F64D0E60562E1100E6D
:102CA0000B6E0C6AEB510B5C000E0C5803E2100E1D
:102CB000DF6E02D0EBC0DFFFDF50EB5DEB6F580E35
:102CC000E96F020EEA6F010EDFCFDBFFEC5116E178
:102CD000010EDB5028E0E7C0F6FFE8C0F7FF080070
:102CE000F550E9C0E9FFEAC0EAFFEF6EE92B000EFC
:102CF000EA23E72BE823010EDB06EAD7010EDB50BF
:102D000012E0E7C0E9FFE8C0EAFFEF50E9C0E9FFE1
:102D1000EAC0EAFFEF6EE92B000EEA23E72BE82377
:102D2000010EDB06EBD70001EB5107E1100EDF5C73
:102D300002E1020E01D0030EE66FDFCFE6FF580E70
:102D4000E66E020EE66E010EE66E020EE66E6CECAC
:102D500010F00B6E050EE15E0B50F3CFEFF0F4CFE9
:102D6000F0F0A084020EE15C02E2E16AE552E16E5D
:082D7000E552E7CFD9FF120084
:082D78008B860A0EE66E5FEC8B
:102D800018F0E5528B960A0EE66E5FEC18F0E552ED
:102D90001200D9CFE6FFE1CFD9FFFD0EDBCFE9FF6F
:102DA000FE0EDBCFEAFFEF5013E0FD0EDBCFE9FFB5
:102DB000FE0EDBCFEAFFEF50E66E010EE66E49D85D
:102DC000E552E552FD0EDB2AFE0EE7E3DB2AE5D7EE
:102DD000E552E7CFD9FF12008B6A946A180EE66EAF
:102DE00032EC18F0E5528B92300E8B6EC5DF060E7A
:102DF000E66E32EC18F0E552BFDF030EE66E5FECD4
:102E000018F0E552B9DF030EE66E5FEC18F0E552FC
:102E1000200E8B6EB1DF030EE66E5FEC18F0E5520C
:102E2000280EE66EE66A15D8E552E5520C0EE66EFF
:102E3000E66A0FD8E552E552060EE66EE66A09D854
:102E4000E552E552010EE66EE66A03D8E552E55218
:102E50001200D9CFE6FFE1CFD9FF8B6AFE0EDB501F
:102E6000E8B08B82E8A08B928B96FD0EDB50F00BC6
:102E70008B1282DF8B6AFE0EDB50E8B08B82E8A0FB
:102E80008B928B96FD0EDB38F00B8B1275DFE552C3
:062E9000E7CFD9FF12009C
:0A2E96001201000202000008D80437
:102EA0000A0000010102000109024300020100C002
:102EB000320904000001020201000524001001048F
:102EC00024020205240600010524010001070581F2
:102ED0000308000209040100020A000000070502BD
:102EE0000240000007058202400000040309043488
:102EF000034D006900630072006F006300680069A1
:102F0000007000200054006500630068006E006FD0
:102F1000006C006F0067007900200049006E0063BC
:102F2000002E0034034300440043002000520053AD
:102F3000002D00320033003200200045006D007586
:102F4000006C006100740069006F006E0020004496
:0F2F50000065006D006F00A82EEB2EEF2E232FD3
:102F60001E0EF66E100EF76E000EF86E01010900CF
:102F7000F550796F0900F5507A6F03E1796701D058
:102F80003DD00900F550746F0900F550756F0900C8
:102F9000F550766F09000900F550E96E0900F5500B
:102FA000EA6E090009000900F550776F0900F55035
:102FB000786F09000900F6CF7BF1F7CF7CF1F8CFED
:102FC0007DF174C1F6FF75C1F7FF76C1F8FF01010D
:102FD000775302E1785307E00900F550EE6E77076A
:102FE000F8E27807F9D77BC1F6FF7CC1F7FF7DC116
:0E2FF000F8FF01017907000E7A5BBFD71200CF
:022FFE00FE0EC5
:10300000E3CFE9FFFF0EE3CFEAFFE9CFF3FFEACF1B
:10301000F4FFFB0EE35003E1FC0EE35009E0FB0E6E
:10302000E30602E2FC0EE306FD0EE350EE6EF1D77E
:103030001200FB0EE3CFF6FFFC0EE3CFF7FFFD0E11
:10304000E3CFF8FFFE0EE3CFE9FFFF0EE3CFEAFF89
:10305000E9CFF3FFEACFF4FF0900F5CFEFFFEE660B
:04306000FBD7120088
:0C306400FF0EE350106EEF0E01D0F30ED3
:10307000E76EE72E39EF18F00C0E0F6EE76AE72EB9
:103080003FEF18F00F2E3EEF18F0102E37EF18F02C
:0230900012002C
:0E309200427574746F6E2050726573736564BE
:1030A000202D2D200D0A006D6F6E6B657962757392
:0D30B0002E6F726700555342204C434400C0
:0230BE00FF0E03
:1030C000E350106E480E01D04C0EE76EE72EFED78F
:0E30D000E76AE72EFED7102EF7D70000120099
:0230DE00000EE2
:1030E000F36E00EE00F0030E01D81200EA6002D089
:0E30F000EE6AFCD7F350E9601200EE6AFCD7DE
:0230FE0011EED1
:1031000000F021EE00F0F86A0A9CB0EC17F003EC36
:0A31100008F0B6EC11F0FBD7120036
:020000040030CA
:0100000000FF
:0100010032CC
:0100020021DC
:010003001EDE
:0100050000FA
:010006008178
:0100080003F4
:01000900C036
:01000A0003F2
:01000B00E014
:01000C0003F0
:01000D0040B2
:00000001FF
